:020000040800F2
:10000000900600205901000835190008550F000816
:1000100000000000000000000000000000000000E0
:10002000000000000000000000000000ED190008C2
:1000300000000000000000003B190008F11A000851
:100040006B010008000000006B0100086B01000854
:100050006B0100086B0100086B0100086B010008D0
:10006000000000006B0100086B0100086B01000834
:100070006B0100086B0100086B0100080000000024
:100080006B0100086B010008000000006B01000814
:100090006B0100086B0100086B0100086B01000890
:1000A0006B0100086B0100086B0100086B01000880
:1000B0006B01000800F002F800F03EF80CA030C818
:1000C000083824182D18A246671EAB4654465D46D4
:1000D000AC4201D100F030F87E460F3E0FCCB64660
:1000E0000126334200D0FB1AA246AB4633431847E1
:1000F000186A0000386A0000103A02D378C878C144
:10010000FAD8520701D330C830C101D504680C6059
:10011000704700000023002400250026103A01D378
:1001200078C1FBD8520700D330C100D50B607047AF
:100130001FB51FBD10B510BD00F09EF91146FFF7A9
:10014000F7FF01F014FF00F0B6F903B4FFF7F2FF78
:1001500003BC00F0BDF9000007488047074800478E
:10016000FEE7FEE7FEE7FEE7FEE7FEE70448054997
:10017000054A064B70470000511B0008B5000008F7
:1001800090000020900600209002002090020020A5
:10019000FEB5054610460C46184373D0AE468C4655
:1001A0000020AD1A01469C4167D366460027012412
:1001B0003D46B61A9D4102D313463A462124654670
:1001C00076462F04360C3E432D0CB61A9D4104D3BF
:1001D000150C1B042B4312041034654676462F067B
:1001E000360A3E432D0AB61A9D4104D3150E1B0252
:1001F0002B4312020834654676462F0736093E43E4
:100200002D09B61A9D4104D3150F1B012B43120172
:10021000241D65467646AF07B6083E43AD08B61ABC
:100220009D4104D3950F9B002B439200A41C65466F
:100230007646EF0776083E436D08B61A9D411AD3FD
:1002400092185B41641C16E00018764665464941E9
:10025000B71A9D410191009009D36046B11A9841A7
:100260008E468446009801990025401C6941DD07AF
:1002700052082A435B08641EE6D57246634603B003
:10028000F0BDFFE700200146C046C0462A4623468F
:10029000F5E7000030B5441C03E00178401C00295C
:1002A0000DD08107F9D10B4BDD0104C8D11A914360
:1002B0002940FAD0001B0A0603D0C01E30BD001B27
:1002C00030BD0A0401D0801E30BD0902FCD0401EA2
:1002D00030BD00000101010101E004C0091F042933
:1002E000FBD28B0701D50280801CC90700D00270A9
:1002F000704700290BD0C30702D00270401C491E72
:10030000022904D3830702D50280801C891EE3E7FB
:100310000022EEE70022DFE7002203098B422CD304
:10032000030A8B4211D300239C464EE003460B4345
:100330003CD4002243088B4231D303098B421CD3A7
:10034000030A8B4201D394463FE0C3098B4201D399
:10035000CB01C01A524183098B4201D38B01C01AD1
:10036000524143098B4201D34B01C01A5241030948
:100370008B4201D30B01C01A5241C3088B4201D3F7
:10038000CB00C01A524183088B4201D38B00C01AA4
:10039000524143088B4201D34B00C01A5241411ACB
:1003A00000D201465241104670475DE0CA0F00D0AE
:1003B0004942031000D34042534000229C460309A7
:1003C0008B422DD3030A8B4212D3FC22890112BA2D
:1003D000030A8B420CD3890192118B4208D3890105
:1003E00092118B4204D389013AD0921100E089091D
:1003F000C3098B4201D3CB01C01A524183098B42FE
:1004000001D38B01C01A524143098B4201D34B01E6
:10041000C01A524103098B4201D30B01C01A524149
:10042000C3088B4201D3CB00C01A524183088B42D0
:1004300001D38B00C01A5241D9D243088B4201D359
:100440004B00C01A5241411A00D201466346524144
:100450005B10104601D34042002B00D54942704743
:1004600063465B1000D3404201B50020C046C04641
:1004700002BD704770477047754600F025F8AE46DC
:10048000050069465346C008C000854618B020B52F
:10049000FFF76CFE60BC00274908B6460026C0C5C1
:1004A000C0C5C0C5C0C5C0C5C0C5C0C5C0C5403D2C
:1004B00049008D46704710B50446C046C0462046E8
:1004C000FFF743FE10BD00000048704730000020D9
:1004D00001491820ABBEFEE726000200704700006D
:1004E000FEB519A000F06CF8002010261B4C0290FD
:1004F0001F231BA21E21019600940A2001F088FAF6
:1005000001251F231FA232210A2001960295009483
:1005100001F07EFA182001901F231FA246210295A8
:1005200000940A2001F074FA202001901F231FA2DA
:100530006421029500940A2001F06AFA4B20000120
:1005400000F00EF9FEBD0000B2E2CAD4353AD6D0B2
:10055000CEC4CFD4CABEB2E2CAD40000E0FF0000CD
:1005600031365831363AD6D0BEB0D4B0B5E7D7D34D
:10057000BCBCCAF5D3D0CFDEB9ABCBBEBBB6D3AD16
:10058000C4FA000031365831363A57656C636F6DE6
:1005900065D6D0BEB0D4B00032345832343A576544
:1005A0006C636F6D65D6D0BEB0D4B00033325833B3
:1005B000323A57656C636F6D65D6D0BEB0D4B0006B
:1005C000F1B584B01F25164C009500211423084670
:1005D000226800F062FD00950CCC00201946143909
:1005E000083C00F05AFD012710266846E0C00D4B7C
:1005F00002210020049A00F097F86846E0C0616884
:10060000084B09A20020123900F08EF8002000905B
:100610000CCC1421143B00F040FD05B0F0BD0000EF
:1006200024000020FFFF0000D6D0BEB0D4B0B0E65A
:10063000C8A8CBF9D3D02000FEB513A0FFF7C0FFA8
:100640001F2400261025E7023B4614A228210A2079
:1006500002960195009401F0DBF9012002903B46DF
:1006600019A24621019500940A2001F0D1F93B46D8
:100670006F4670C71FA264210A2001F0C9F94B2000
:10068000000100F06DF8FEBDB2E2CAD4343AD3A244
:10069000CEC4CFD4CABEB2E2CAD400003858313674
:1006A0003A6162636465666768696A6B6C6D6E6FF8
:1006B000707172737475767778797A303132333439
:1006C0003536373839000000385831363A41424320
:1006D0004445464748494A4B4C4D4E4F5051525362
:1006E0005455565758595A303132333435363738D5
:1006F00039000000385831363A7E21402324255EE7
:10070000262A28295F2B7B7D3A3C3E3F2F7C2D2BD0
:100710002E00000010B514460B46024600F01BFCEC
:10072000204601F04FF810BDFFB583B005461446D2
:1007300010460E9F0D9EFFF7ADFD0849C0000968E9
:100740006B46081A0C994008C2C328182246069B1B
:10075000049901F05DF907B0F0BD0000240000200D
:1007600070B5044600F0E6F80546601C02D0044867
:100770000078241800F0DEF8401BA042FAD370BDC8
:1007800014000020F8B5002303240125BAE02E460A
:100790009E40B44632407CD00E79B607B60F012E8B
:1007A00001D0022E17D186682746B6465E00B740B4
:1007B00000967646BE43B646CF68009EB740764662
:1007C0003743876046686746BE430F79FF06FF0FD1
:1007D0009F40374347600E79F643B6070ED0C66890
:1007E0002746B4465E00B646B7406646BE43B446AA
:1007F0008F687646B74066463743C7600E79B607BE
:10080000B60F022E14D1DE08B60036180096366AEE
:100810005F07B446FE0E0F27B646B7406646BE4396
:10082000B4460F697646B74066463743009E376246
:1008300006682746B4465E00B646B7406646BE43E5
:100840000F79B446BF07BF0F7646B74066463743B9
:1008500007604E68B603B60F53D02D4FBE692E43C6
:10086000BE61BE699F08F607F60F2A4EBF00BE198B
:100870000096B6680F27B4469E07360FB646B740B7
:100880006646BE430927FF06B446B84202D1002798
:1008900010E036E0204FB84201D101270AE01F4F97
:1008A000B84201D1022705E01D4FB84201D103270C
:1008B00000E005277646B74066463743009EB7609E
:1008C000184E36684F689643FF0300D51643154F00
:1008D0003E607E684F689643BF0300D51643114FB4
:1008E0007E60BE684F689643FF0200D516430D4FE9
:1008F000BE60FE684F689643BF0200D51643094AA2
:10090000D6605B1C0A681646DE4000D03FE7F8BDA3
:1009100000100240000001400004004800080048A8
:10092000000C004800040140002A01D0816170479A
:100930008162704701488068704700001400002001
:10094000024881680278891881607047140000208D
:1009500010B506480168102211430160032000F021
:1009600007F800F027F8002010BD0000002002402A
:1009700070B504460D4D7D202978C000FFF7CCFCF2
:1009800001460B480068FFF7C7FC00F0CBFA0028CF
:1009900009D1042C07D200222146401E00F01EF887
:1009A00000206C6070BD012070BD000014000020AC
:1009B0002000002008B508488169012211438161A7
:1009C000816911400091C26901040A43C261C06992
:1009D0000840009008BD00000010024010B501F072
:1009E0002FFA10BD70470000F8B50F46060059D029
:1009F0003A4D2868C007C00FB84209D2286840089D
:100A00004000384328602868C007C00FB84249D169
:100A10003068334C81070CD5400704D56068072146
:100A20000902084360606068F0218843B1680843A8
:100A300060603078C00726D0706801280ED0216829
:100A400002280ED0890700292CDA616889088900FC
:100A500001436160FFF76EFF00900DE0216889039C
:100A6000F1E78901EFE7FFF765FF0099411A1D489B
:100A7000814201D90320F8BD60680C2108407168EB
:100A800089008842EFD12868C007C00FB8420BD94F
:100A9000286840084000384328602868C007C00F15
:100AA000B84201D00120F8BD3078400706D5606813
:100AB000072109028843F1680843606000F022F8CA
:100AC0006168094A0906090F515CC8400749086076
:100AD0000320FFF74DFF0020F8BD0000002002407A
:100AE0000010024088130000F86A0008200000206F
:100AF000034801680122D2041143016070470000DD
:100B00000010024010B514A30FCB88B06C460FC480
:100B100015A30FCB0FC4184A51680C200B46034095
:100B20001648042B16D0082B14D18B021B0F6C46D1
:100B3000E45CD26A04AB1207120F9A5CC90305D5B4
:100B400000231946FFF724FB214601E020460C490B
:100B500001F05EF908B010BD02030405060708099C
:100B60000A0B0C0D0E0F10100102030405060708F6
:100B7000090A0B0C0D0E0F100010024000127A0033
:100B800000093D0010B5044CA068000603D5FFF72E
:100B900029FF8020A07210BD00100240FEB50400A5
:100BA00070D02078DC4DC0074AD068680007800FFD
:100BB000012807D068680007800F022809D16868FB
:100BC000C00306D5286880033AD560680028E7D0BE
:100BD00036E06168012914D001208004002901D089
:100BE000052914D02A68012109048A432A6029684A
:100BF000814329606068002816D0FFF79BFE0646F7
:100C00000EE028680121090408432860F2E72968FA
:100C100001432960F5E7FFF78DFE801B64286ED83D
:100C200028688003F7D50BE0FFF784FE064604E052
:100C3000FFF780FE801B6428F1D828688003F7D472
:100C400020780126800700283CDA68680007800FBA
:100C500007D068680007800F022809D16868C003C0
:100C600006D42868800716D5E06801280AD112E06A
:100C7000E0680028286816D030432860FFF75AFE45
:100C8000074605E043E1FFF755FEC01B0228C6D822
:100C900028688007F7D52868F82188432169C900AA
:100CA000084328600EE0400840002860FFF742FE3D
:100CB000074604E0FFF73EFEC01B0228AFD82868B5
:100CC0008007F7D42078000722D5E0690028686AF9
:100CD0000ED030436862FFF72DFE074604E0FFF7B1
:100CE00029FEC01B02289AD8686A8007F7D50FE052
:100CF000400840006862FFF71DFE074605E09DE0E2
:100D0000FFF718FEC01B022889D8686A8007F7D44D
:100D1000207804274007002860DA00200190E86965
:100D2000C00008D4E969B8060143E961E9690140F6
:100D300001200091019079480168C90511D401682A
:100D4000821511430160FFF7F5FD009005E0FFF704
:100D5000F1FD0099401A642870D870480068C005F9
:100D6000F5D5A06801280AD0002801D0052810D0A8
:100D7000286A400840002862286AB84301E0286ACF
:100D800030432862A068002812D0FFF7D3FD0090FE
:100D90000AE0286A38432862F1E7FFF7CBFD0099A3
:100DA000411A5F48814249D8286A8007F5D50DE08D
:100DB000FFF7C0FD009006E0FFF7BCFD0099411A67
:100DC000574881423AD8286A8007F5D4019800280C
:100DD00004D0E969012000078143E9612078C00659
:100DE00035D5606901280CD0401D686B23D038438D
:100DF0006863686B400840006863FFF79BFD064628
:100E000022E0686B38436863686B30436863FFF7C0
:100E100091FD064604E0FFF78DFD801B02285BD89C
:100E2000686B8007F7D5686BF8218843A169C90012
:100E3000084368630BE0B8436863F4E74CE0FFF7EE
:100E400079FD801B022847D8686B8007F7D4206A99
:100E500000285ED069680907890F022942D001265F
:100E600036060228286805D0B0432860FFF762FDE7
:100E7000044633E0B0432860FFF75CFD074604E01A
:100E8000FFF758FDC01B022826D828688001F7D438
:100E9000E86AE16A000900010843E862616AA06A41
:100EA000084369683D22120491430843686028683A
:100EB00030432860FFF73EFD044604E0FFF73AFDAB
:100EC000001B022808D828688001F7D521E0FFF729
:100ED00031FD001B022801D90320FEBD28688001D6
:100EE000F5D416E00128F8D06868E96A01221204F6
:100EF000636A02409A420AD10907E26A090F9142E5
:100F000005D10F2189040840A16A884201D001203F
:100F1000FEBD0020FEBD0000001002400070004039
:100F200088130000094910B5401E884201D90120EC
:100F300010BD074C60610321081F00F081FF0020F5
:100F4000A06107202061002010BD0000FFFFFF000E
:100F500000E000E0FEE7F8B507461C4615460E46E1
:100F60002A2000F071FC3804000E00F051FCF8B2A9
:100F700000F04EFC2804000E00F04AFCE8B200F03D
:100F800047FC2B2000F060FC3004000E00F040FC19
:100F9000F0B200F03DFC2004000E00F039FCE0B29D
:100FA00000F036FC2C2000F04FFCF8BDF0B587B007
:100FB0000024161A01905D1A601E274604940091C1
:100FC000002E01DD012108E0002E05D076420390BD
:100FD000002D04DD01200BE000210391F8E7002D36
:100FE00005D06D420290AE4204DD344603E000209D
:100FF0000290F8E72C4600200590601C06900598AA
:101000001AE00C9A0099019800F01BF804987F19D7
:1010100080190490A04205DD001B049003990198FB
:1010200040180190A74204DD029900983F1B401828
:1010300000900598401C059006998842E1D307B0BE
:10104000F0BD10B514460B460246FFF784FF20465C
:1010500000F0B8FB10BDFFB581B01D46029B0A9C95
:101060001646074600941946FFF7A0FF3A462B465E
:10107000009410460299FFF799FF2B463246194615
:1010800038460094FFF792FF32462B4600941046F4
:101090000299FFF78BFF05B0F0BDFFB581B01F4689
:1010A00016460C465B1E521E0198FFF754FF08E0DF
:1010B000019D03E00A9800F085FB6D1CB542F9D351
:1010C000641CBC42F4D305B0F0BD000070B5092427
:1010D000E406A06A10252843A062C820FFF740FB61
:1010E000A0692843A0613220FFF73AFB602000F09E
:1010F0007FFCD32000F0A8FB00F0CEF8654CA06088
:1011000000F0CAF8A060112000F09EFB6420FFF7F9
:1011100027FB362000F098FBA02000F079FB3A2056
:1011200000F092FB052000F073FBB22000F08CFB76
:101130000C2000F06DFB0C2000F06AFB002000F09A
:1011400067FB332000F064FB332000F061FBB72025
:1011500000F07AFB352000F05BFBBB2000F074FB55
:10116000352000F055FBC02000F06EFB2C2000F075
:101170004FFBC22000F068FB012000F049FBC320B8
:1011800000F062FB132000F043FBC42000F05CFB86
:10119000202000F03DFBC62000F056FB0F2000F0A1
:1011A00037FBCA2000F050FB0F2000F031FBC820B5
:1011B00000F04AFB082000F02BFB552000F044FB18
:1011C000902000F025FBD02000F03EFBA42000F092
:1011D0001FFBA12000F01CFBE02000F035FBD0201D
:1011E00000F016FB002000F013FB062000F010FBBF
:1011F000092000F00DFB0B2000F00AFB2A2000F074
:1012000007FB3C2000F004FB552000F001FB4B20C5
:1012100000F0FEFA082000F0FBFA162000F0F8FAC1
:10122000142000F0F5FA192000F0F2FA202000F066
:10123000EFFAE12000F008FBD02000F0E9FA0020EE
:1012400000F0E6FA062000F0E3FA092000F0E0FAE8
:101250000B2000F0DDFA292000F0DAFA362000F049
:10126000D7FA542000F0D4FA4B2000F0D1FA0D2028
:1012700000F0CEFA162000F0CBFA142000F0C8FAE5
:10128000212000F0C5FA202000F0C2FA292000F049
:10129000DBFA70BD24000020F0B5144A0020106075
:1012A0000920C0068169022319438161816A0125F1
:1012B00029438162816A0823194381621169FF24ED
:1012C0002402866921401E438661866A1E43866227
:1012D000166987691F43876183692B4383613002E5
:1012E0002140000A084302491160F0BD0004004893
:1012F00055555555FFB5044685B0002000900F9810
:1013000001944708F808790700D0012140180F9987
:10131000203A48430390D0B207900698E219431848
:1013200001462046521E5B1EFFF715FE00254CE0CD
:101330000F980C2823D0102826D0182828D0202831
:1013400046D10798254980014018405D002602904B
:101350001098002821D001200299B040084204D002
:101360002046089A0699FFF76CFE0198641C201A23
:10137000B84225D10698019C401C069024E00798AD
:101380000C2148431649DFE7079816490001DBE7BF
:101390000798302148431449D6E701200299B0400C
:1013A000084201D0089800E00E9800F00BFA00986F
:1013B0003946401CC0B20090FEF7AEFF002909D0AC
:1013C000761CF6B2082EC3D36D1C03988542AFD3AA
:1013D00009B0F0BD00200090F6E70000843C000852
:1013E00050200008C4240008B42A0008FFB50546B0
:1013F00089B00020069013980795C108400700D0D7
:1014000001200818139948430490052000240390F4
:1014100020461A2148432D490B9A0B5C12789342BF
:101420004BD14018029041780B984078814244D1CA
:1014300013990A986A18431801462846521E5B1EE3
:10144000FFF789FD002735E002980026C0190890B3
:1014500014980028089814D081780120B0400142E7
:1014600004D028460C9A0A99FFF7EBFD07986D1CEB
:10147000291A1398814217D10A98079D401C0A9097
:1014800016E080780121B140084201D00C9800E0BC
:10149000129800F097F906981399401CC0B2069074
:1014A000FEF73AFF00290ED0761CF6B2082ECFD3F5
:1014B0007F1CFFB204988742C6D30398641C844201
:1014C000A6D30DB0F0BD00200690F1E7445400080B
:1014D000FFB5054689B00020069013980795C1080E
:1014E000400700D0012008181399484304902B208E
:1014F000002403902046222148432D490B9A0B5C7F
:10150000127893424BD14018029041780B98407862
:10151000814244D113990A986A1843180146284613
:10152000521E5B1EFFF717FD002735E002980026CC
:10153000C019089014980028089814D081780120C8
:10154000B040014204D028460C9A0A99FFF779FD71
:1015500007986D1C291A1398814217D10A98079D84
:10156000401C0A9016E080780121B140084201D069
:101570000C9800E0129800F025F906981399401C89
:10158000C0B20690FEF7C8FE00290ED0761CF6B257
:10159000082ECFD37F1CFFB204988742C6D303988E
:1015A000641C8442A6D30DB0F0BD00200690F1E784
:1015B000C6540008FFB5054689B000200690139870
:1015C0000795C108400700D0012008181399484327
:1015D000049005200024039020464A2148432D49C9
:1015E0000B9A0B5C127893424BD1401802904178D1
:1015F0000B984078814244D113990A986A1843188D
:1016000001462846521E5B1EFFF7A5FC002735E069
:1016100002980026C019089014980028089814D041
:1016200081780120B040014204D028460C9A0A99E2
:10163000FFF707FD07986D1C291A1398814217D1EF
:101640000A98079D401C0A9016E080780121B1405D
:10165000084201D00C9800E0129800F0B3F8069808
:101660001399401CC0B20690FEF756FE00290ED01A
:10167000761CF6B2082ECFD37F1CFFB204988742A7
:10168000C6D30398641C8442A6D30DB0F0BD0020DD
:101690000690F1E77C5A0008FFB5054689B00020A6
:1016A000069013980795C108400700D0012008183C
:1016B000139948430490052000240390204682217A
:1016C00048432D490B9A0B5C127893424BD140183A
:1016D000029041780B984078814244D113990A983E
:1016E0006A18431801462846521E5B1EFFF733FC5A
:1016F000002735E002980026C019089014980028A9
:10170000089814D081780120B040014204D02846C6
:101710000C9A0A99FFF795FC07986D1C291A1398E3
:10172000814217D10A98079D401C0A9016E08078E4
:101730000121B140084201D00C9800E0129800F05D
:1017400041F806981399401CC0B20690FEF7E4FDDC
:1017500000290ED0761CF6B2082ECFD37F1CFFB224
:1017600004988742C6D30398641C8442A6D30DB064
:10177000F0BD00200690F1E7EE5B0008FFB581B0F8
:10178000039A1F46CB1982180025521E5B1EFFF7D5
:10179000E2FB002610E000240BE00A9968000A9A98
:1017A000095C801842780802104300F00BF8641CB2
:1017B0006D1CBC42F1D3761C03988642EBD305B076
:1017C000F0BD000030B50921C9068A6A01231A4319
:1017D0008A628A69022422438A618C6A0422144341
:1017E0008C62FF24240205462540084C65618D6902
:1017F00015438D618D6A15438D62000260618869B1
:101800001043886188691843886130BD000400482E
:1018100010B50921C9068B6A012213438B628B69BB
:10182000022423438B618C6A04231C438C62054C85
:101830000002606188691843886188691043886183
:1018400010BD0000000400480921C9068A6A02236D
:101850001A438A628B6A012213438B62064B000291
:1018600058618B6A042003438B628B6903438B614D
:10187000886910438861704700040048F0B587B05C
:1018800014216846FEF746FD274842690121C90434
:101890000A43426142690A4005924269C9000A430B
:1018A000426142690A400592426949110A43426114
:1018B00042690A400592426949000A43426140690F
:1018C0001A4E08404C110590002221463046FFF781
:1018D0002BF80927FF0600221F213846FFF724F8BE
:1018E0000022FF211248FFF71FF800940024012571
:1018F00001950294694630460394FEF743FF1F208A
:10190000009002946946019503943846FEF73AFF29
:10191000FF20009002946946019503940448FEF765
:1019200031FF07B0F0BD0000001002400008004881
:1019300000040048FFF726F9FEE77047FEB522A035
:10194000FEF73EFE25480090254814210CC80020D3
:10195000143BFFF7A2FB234C28231E211A460846FE
:101960000094FFF70BFF1D4D012710261F3D1F237D
:101970001DA24B212A2002970196009500F048F8FD
:1019800028231A461E215A200094FFF7F7FE1F2332
:1019900015A24B21662002970196009500F038F8B9
:1019A00028231A461E2196200094FFF7E7FE6C4676
:1019B000E0C41F230CA24B21A22000F029F84B20E9
:1019C0000001FEF7CDFEFEBDB2E2CAD4363ACDBC70
:1019D000C6ACCFD4CABEB2E2CAD40000FFFF00003A
:1019E00024000020785E000851510000704700007C
:1019F0008006830FFF2141310448F022002B01D0E3
:101A000006C070470260416070470000240000205B
:101A1000FFB585B00F9C0390117816460546670800
:101A2000002961D031480168CA1BAA425CD34068D2
:101A3000069A001B904257D33278802A1AD9091B84
:101A4000A94251D3069988424ED3202C28D0182C75
:101A500032D0102C3CD010990E9801940291009035
:101A600032462846089B0699FFF7C0FC2D19B1782D
:101A7000B61CD5E70D2A0DD010980E99019400914F
:101A800002902846089B0699FFF734FC7D1971786F
:101A9000761CC5E70698039D00190690761CF6E7AC
:101AA00010980E9901940091029032462846089BA6
:101AB0000699FFF7F1FDD9E710980E99019400916E
:101AC000029032462846089B0699FFF773FDCDE742
:101AD00010980E9901940091029032462846089B76
:101AE0000699FFF7F5FCC1E709B0F0BD240000201E
:101AF00010B5FEF725FF10BD30B591B03021684616
:101B0000FEF708FC00240120009001900E940004D0
:101B10000D9402250F9409900C9408950A940B9447
:101B20006846FFF73BF8002801D072B6FEE70720B1
:101B30000C900E9400210D950F940CA8FEF754FF05
:101B4000002801D072B6FEE7FEF7D2FF11B030BD1B
:101B500070470000F8B5002424A0FEF731FD294F9E
:101B6000294D00976B6814210020143B2A68FFF769
:101B700094FA264E002000906868192241082046F9
:101B800050432A68091852081018A200B2581E23A0
:101B90005038323900F0ACF9641CE4B2052CE9D3BA
:101BA0001B48FEF7DDFD00976B6814210020143BF5
:101BB0002A68FFF772FA0024012700976868192243
:101BC0004108204650432A68091852081018A200FC
:101BD000B2581E235038323900F08AF9641CE4B23E
:101BE000052CEAD30A48FEF7BBFDF8BDB2E2CAD421
:101BF000333A475549BBADD4B2CCEEB3E4B2E2CAF6
:101C0000D4000000FFFF000024000020000000209E
:101C1000DC050000FEB53CA0FEF7D2FC3F48404C7E
:101C20000090636814210020143B2268FFF735FA06
:101C30003A4D012710261F3D6846E0C020681F234B
:101C400038A21E213238FFF7E3FEFF20F530FEF701
:101C500087FD0020009063681421143B2268FFF781
:101C60001CFA6846E0C020681F2330A21E213238CB
:101C7000FFF7CEFEFF20F530FEF772FD1F20C002F9
:101C80000090636814210020143B2268FFF705FAD6
:101C90006846E0C020681F2326A21E213238FFF7C5
:101CA000B7FEFF20F530FEF75BFD3F2040010090BE
:101CB000636814210020143B2268FFF7EEF96846A0
:101CC000E0C020681F231CA21E213238FFF7A0FEAF
:101CD000FF20F530FEF744FD1F20009063681421BB
:101CE0000020143B2268FFF7D8F96846E0C020685E
:101CF0001F2313A21E213238FFF78AFEFF20F53082
:101D0000FEF72EFDFEBD0000B2E2CAD4313AB4BFE8
:101D1000C9ABCCEEB3E4B2E2CAD40000FFFF0000CE
:101D2000240000205768697465000000426C6163FC
:101D30006B00000052656400477265656E0000002C
:101D4000426C756500000000F8B5002426A0FEF77F
:101D500037FC2B4F2B4D00976B6814210020143B50
:101D60002A68FFF79AF9284EA0003058009068685A
:101D70002A6841082001001B0918520810180B4658
:101D80000246143B143A50385039FFF764F9641C8A
:101D9000E4B2052CE8D31D4C2046FEF7E1FC009789
:101DA0006B6814210020143B2A68FFF776F900279E
:101DB000B8003058009068682A6841083801C01B94
:101DC0000918520810180B460246143B143A5038B2
:101DD0005039FFF762F97F1CFFB2052FE8D3204688
:101DE000FEF7BEFCF8BD0000B2E2CAD4323A475555
:101DF00049BED8D0CECCEEB3E4B2E2CAD4000000E3
:101E0000FFFF00002400002000000020DC0500008F
:101E1000F8B5040C8BB2264682B25E430D0C104618
:101E2000370C5843360480190021794116466E4319
:101E3000370C36048019794126466E438919F8BD5E
:101E40008307FF22DB0E9A408907090E994000287C
:101E500008DB830809489B001B1818689043084357
:101E6000186070470007000F0838830804489B007B
:101E70001B18D86990430843D861704700E400E01C
:101E800000ED00E0FEB515461C460E460746091952
:101E9000401900910290089AFEF73CFC781B0099CB
:101EA0000190089AFEF736FC311B0091089A0298BF
:101EB000FEF730FC089A00990198FEF72BFC711987
:101EC000381901910090089AFEF724FC3C1B20462B
:101ED000089A0199FEF71EFC751B2946089A00987E
:101EE000FEF718FC29462046089AFEF713FCFEBDB3
:101EF000FFB581B05A0003210A9800248D1A1E46AE
:101F0000002819D130E0274608E0039800903B46AE
:101F1000224602990198FFF7B5FF7F1CB742F4DD16
:101F2000002D03DAA0004519AD1D04E0A01B8000C0
:101F300045190A35761E641CB442E4DD05B0F0BDD7
:101F4000039800903346224602990198FFF79AFFC2
:101F5000002D03DAA0004519AD1D04E0A01B800090
:101F600045190A35761E641CB442E9DDE6E7FEF742
:101F7000EFFCFFF7C1FDFFF781FCFFF7A7F800F0CA
:101F80000DF8FFF747FEFFF7DFFEFFF7E3FDFEF773
:101F900053FBFEF7A5FAFFF7D1FCEEE7FEB515A05F
:101FA000FEF70EFB1F2401261025E7023B4617A271
:101FB0001E210020029601950094FEF7B5FB3B46DA
:101FC00015A23C210020029601950094FEF7ACFB7F
:101FD0003B4615A25A210020029601950094FEF777
:101FE000A3FB3B466F4670C713A278210020FEF783
:101FF0009BFBFEBDD6D0BEB0D4B0B5E7D7D3D7DB00
:10200000BACFB2E2CAD4B3CCD0F20000D6D0BEB0C0
:10201000D4B0B5E7D7D30000D7DBBACFB2E2CAD489
:10202000B3CCD0F200000000494C493933343120A0
:102030003234305833323000D6D0BEB0D4B0B5E7E9
:10204000D7D320323032302D30352D3035000000DE
:102050000000000000000000000000000000040478
:10206000040404000004000014140A00000000002E
:102070000000000000000A0A1F0A0A1F0A0A0000E6
:1020800000040E1505060C14150E040000001215B0
:102090000D152E2C2A1200000000040A0A36151510
:1020A00029160000020201000000000000000000EC
:1020B00010080804040404040808100002040408BA
:1020C000080808080404020000000004150E0E159C
:1020D0000400000000000008083E0808000000009E
:1020E00000000000000000000202010000000000EB
:1020F000003F0000000000000000000000000000A1
:102100000002000000201010080804040202010070
:1021100000000E1111111111110E00000000040633
:1021200004040404040E000000000E11110804024F
:10213000011F000000000E11100C1010110E000005
:102140000000080C0C0A091F081C000000001F01F9
:10215000010F1110110E000000000C12010D1311DF
:10216000110E000000001E10080804040404000002
:1021700000000E11110E1111110E000000000E11C1
:1021800011191610090600000000000004000000EC
:10219000000400000000000000040000000404002F
:1021A00000001008040202040810000000000000F3
:1021B0003F003F000000000000000204081010086B
:1021C0000402000000000E111108040400040000C5
:1021D00000001C22292D2D1D221C000000000404DB
:1021E0000C0A0A1E1233000000000F12120E121207
:1021F000120F000000001E1101010101110E00006C
:1022000000000F1212121212120F000000001F1213
:102210000A0E0A02121F000000001F120A0E0A0214
:102220000207000000001C1201013911120C00000D
:1022300000003312121E12121233000000001F049D
:1022400004040404041F000000003E0808080808F5
:1022500008080907000037120A060A1212370000A0
:102260000000070202020202223F000000003B1BA6
:102270001B1B15151535000000003B1216161A1A07
:102280001217000000000E1111111111110E0000A3
:1022900000000F12120E02020207000000000E11D1
:1022A00011111117190E180000000F12120E0A1248
:1022B0001237000000001E1101060810110F000067
:1022C00000001F1504040404040E00000000331273
:1022D00012121212120C000000003312120A0A0C21
:1022E000040400000000151515150E0A0A0A000066
:1022F00000001B0A0A04040A0A1B000000001B0A53
:102300000A0A0404040E000000001F090804040265
:10231000121F00001C0404040404040404041C0030
:102320000002020404040808081010000E0808083F
:102330000808080808080E00040A00000000000051
:102340000000000000000000000000000000003F4E
:102350000204000000000000000000000000000077
:10236000000C121C123C000000030202020E1212AA
:10237000120E000000000000001C1202120C0000EF
:1023800000181010101C1212123C00000000000077
:10239000000C121E021C000000182404041E040479
:1023A000041E000000000000003C120C021C221C55
:1023B00000030202020E1212123700000004040091
:1023C00000060404040E000000080800000C0808C1
:1023D0000808080700030202021A0A060A1300008E
:1023E0000007040404040404041F000000000000AB
:1023F000000F15151515000000000000000F121247
:102400001237000000000000000C1212120C000035
:1024100000000000000F1212120E02070000000060
:10242000001C1212121C103800000000001B0602D3
:102430000207000000000000001E020C101E000039
:1024400000000004041E0404041C0000000000003E
:10245000001B1212123C000000000000001B0A0AC0
:1024600004040000000000000015150E0A0A000018
:1024700000000000001B0A040A1B0000000000000E
:10248000003312120C08040300000000001E0804B0
:10249000041E000018080808080C0808080818009E
:1024A00008080808080808080808080806040404BA
:1024B00004080404040406001609000000000000DB
:1024C000000000000000000000000000000000000C
:1024D00000000000000000080808080808080000C4
:1024E0001818000000486C241200000000000000D2
:1024F000000000000000002424247F1212127F122A
:10250000121200000000081C2A2A0A0C1828282A87
:102510002A1C080800000022251515152A585454B5
:10252000542200000000000C1212120A7625291114
:10253000916E000000060604030000000000000089
:1025400000000000004020101008080808080810CB
:10255000102040000002040808101010101010088D
:10256000080402000000000008086B1C1C6B08082F
:102570000000000000000000080808087F080808A4
:102580000800000000000000000000000000000043
:10259000060604030000000000000000FE0000002A
:1025A000000000000000000000000000000000002B
:1025B000060600000000804040202010100808049B
:1025C00004020200000000182442424242424242F9
:1025D00024180000000000080E0808080808080871
:1025E000083E00000000003C424242202010080447
:1025F000427E00000000003C424220182040404241
:10260000221C0000000000203028242422227E20EA
:10261000207800000000007E0202021A264040429C
:10262000221C0000000000382402021A2642424206
:10263000241800000000007E22221010080808085C
:10264000080800000000003C424242241824424294
:10265000423C0000000000182442424264584040BE
:10266000241C0000000000000000181800000000FA
:102670001818000000000000000000080000000022
:10268000000808040000004020100804020408109C
:10269000204000000000000000007F0000007F00DC
:1026A0000000000000000002040810204020100874
:1026B000040200000000003C42424640201010008E
:1026C000181800000000001C225A555555552D427F
:1026D000221C00000000000808181414243C2242A8
:1026E00042E700000000001F2222221E2242424236
:1026F000221F00000000007C424201010101014252
:10270000221C00000000001F22424242424242427C
:10271000221F00000000003F4212121E121202424D
:10272000423F00000000003F4212121E121202023D
:10273000020700000000003C222201010171212259
:10274000221C0000000000E7424242427E42424218
:1027500042E700000000003E0808080808080808D2
:10276000083E00000000007C101010101010101027
:102770001010110F0000007722120A0E0A12122206
:102780002277000000000007020202020202020299
:10279000427F000000000077363636362A2A2A2A81
:1027A0002A6B0000000000E346464A4A5252526239
:1027B000624700000000001C22414141414141416B
:1027C000221C00000000003F424242423E02020240
:1027D000020700000000001C2241414141414D53CD
:1027E000321C60000000003F4242423E1212222290
:1027F00042C700000000007C424202041820404210
:10280000423E00000000007F490808080808080848
:10281000081C0000000000E742424242424242429D
:10282000423C0000000000E7424222242414141815
:10283000080800000000006B4949494955553622F7
:1028400022220000000000E7422424181818242443
:1028500042E700000000007722221414080808084C
:10286000081C00000000007E212010100804044213
:10287000423F00000078080808080808080808080F
:10288000080878000000020204040808081010205C
:1028900020204040001E10101010101010101010BA
:1028A00010101E000038440000000000000000006E
:1028B0000000000000000000000000000000000018
:1028C000000000FF000608000000000000000000FB
:1028D00000000000000000000000003C427844427C
:1028E00042FC0000000000030202021A264242429B
:1028F000261A000000000000000000384402020216
:1029000044380000000000604040407844424242A9
:1029100064D80000000000000000003C427E02027B
:10292000423C0000000000F08808087E0808080803
:10293000083E0000000000000000007C22221C0273
:102940003C42423C000000030202023A464242423C
:1029500042E700000000000C0C00000E0808080808
:10296000083E000000000030300000382020202009
:102970002020221E0000000302020272120A161218
:10298000227700000000000E080808080808080860
:10299000083E0000000000000000007F929292922A
:1029A00092B70000000000000000003B4642424297
:1029B00042E70000000000000000003C42424242AA
:1029C000423C0000000000000000001B2642424282
:1029D000221E02070000000000000078444242422C
:1029E000447840E000000000000000774C0404043C
:1029F000041F0000000000000000007C42023C4078
:102A0000423E0000000000000008083E08080808D8
:102A10000830000000000000000000634242424213
:102A200062DC000000000000000000E742242414E3
:102A30000808000000000000000000EB494955555F
:102A40002222000000000000000000762418181860
:102A5000246E000000000000000000E7422424145F
:102A600018080807000000000000007E2210080877
:102A7000447E000000C020202020201020202020A4
:102A80002020C00010101010101010101010101086
:102A90001010101000060808080808100808080898
:102AA000080806000C32C200000000000000000010
:102AB0000000000000000000000000000000000016
:102AC0000000000000000000000000000000000006
:102AD00000000000000000000000000000000000F6
:102AE000000000000000000000000000E000E00026
:102AF000E000E000E00040004000400040004000F6
:102B00004000000000000000E000E000E0000000E5
:102B1000000000000000000060066006300398011D
:102B200088004400000000000000000000000000D9
:102B30000000000000000000000000000000000095
:102B4000000000000000000000000000000008027B
:102B5000080208020802FE07FE0708020802040134
:102B60000401FE07FE070401040104010401000042
:102B70000000000000000000000040004000F001E4
:102B800058034C034C034C0058007000E000C00197
:102B9000C00140034C034C034C034801F0004000CB
:102BA00040000000000000000000000000000E03D4
:102BB0000A01110191009100D1005100FA03AE0207
:102BC0006004500450045804480488028403000040
:102BD00000000000000000000000000000003800BD
:102BE0006400640064006400A4031C010C011A0169
:102BF0009200B300E3006300C300A6041C030000BE
:102C000000000000000000000C001C00100010007C
:102C100008000600000000000000000000000000A6
:102C200000000000000000000000000000000000A4
:102C3000000000000000000000040002000180010C
:102C40008000C000C00060006000600060006000A4
:102C500060006000C000C000800080010001000230
:102C6000000400000000000002000400080018003A
:102C70001000300030006000600060006000600004
:102C800060006000300030001000180008000400F0
:102C90000200000000000000000000000000000032
:102CA0004000400040004E0E5C07F001F0015C0760
:102CB0004E0E4000400040000000000000000000F8
:102CC0000000000000000000000000000000000004
:102CD000000040004000400040004000FE0F400067
:102CE00040004000400040000000000000000000E4
:102CF00000000000000000000000000000000000D4
:102D000000000000000000000000000000000000C3
:102D100000000000000000000C001C00100010006B
:102D20000800060000000000000000000000000095
:102D3000000000000000000000000000FE0700008E
:102D40000000000000000000000000000000000083
:102D50000000000000000000000000000000000073
:102D60000000000000000000000000000000000063
:102D700000000000000000001C001C001C000000FF
:102D80000000000000000000000400060002000334
:102D90000001000180008000400040006000200031
:102DA000200010001000080008000C0004000600BD
:102DB0000200000000000000000000000000F00021
:102DC00098010C030C030606060606060606060610
:102DD0000606060606060C030C039801F000000028
:102DE00000000000000000000000000000004000A3
:102DF00060007C00600060006000600060006000B7
:102E0000600060006000600060006000FC03000083
:102E10000000000000000000000000000000F800BA
:102E20008401020306030603000380018001C00041
:102E300020001000080204020202FE03FE0300004C
:102E4000000000000000000000000000000078000A
:102E5000C4008601860186018001C00070008001E7
:102E6000000100030603060306038401F8000000C6
:102E700000000000000000000000000000018001D0
:102E8000C001C001A001900190018801840184016A
:102E90008201FE078001800180018001E0070000BF
:102EA0000000000000000000000000000000FC0323
:102EB000FC030400040004000400F4008C0104037B
:102EC000000300030603060382018401F8000000EA
:102ED0000000000000000000000000000000E00111
:102EE00018030C030C0004000600E60116030E068E
:102EF00006060606060604060C021803F00000008B
:102F00000000000000000000000000000000F807C2
:102F1000FC070C0204010401000180008000400055
:102F20004000400060006000600060006000000041
:102F30000000000000000000000000000000F80198
:102F40000C030606060606060E023C03F000CC0142
:102F5000040306060606060606060C03F00100003A
:102F60000000000000000000000000000000F00071
:102F70000C010C03060206060606060606078C066A
:102F800078060006000300030C018C0178000000A5
:102F90000000000000000000000000000000000031
:102FA000000000000000E000E000E0000000000081
:102FB0000000000000000000E000E000E000000071
:102FC0000000000000000000000000000000000001
:102FD0000000000000000000600060000000000031
:102FE00000000000000000000000600060004000E1
:102FF00020000000000000000000000000040002AB
:1030000000018000400020001000080004000800BB
:1030100010002000400080000001000200040000B9
:1030200000000000000000000000000000000000A0
:103030000000000000000000FE070000000000008B
:103040000000FE070000000000000000000000007B
:103050000000000000000000000000000400080064
:103060001000200040008000000100020004000267
:103070000001800040002000100008000400000053
:10308000000000000000000000000000F0010C0340
:103090000206020606060606000380016000200004
:1030A0002000200000000000700070007000000090
:1030B0000000000000000000000000000000E0012F
:1030C00038060804CC0A640B2609260916091609D5
:1030D0009609960566030C080C041802E00100002E
:1030E0000000000000000000000000000000600080
:1030F00060007000D000D000C800880188018801FD
:10310000F801040304030403040606060F0F00007D
:103110000000000000000000000000000000FF00B0
:10312000860106030603060306038601FE00060366
:10313000060206060606060606060603FF0100004E
:103140000000000000000000000000000000E00798
:1031500018060C040C040400060006000600060015
:103160000600060006040C040C021801F000000022
:1031700000000000000000000000000000007F00D0
:10318000860106030603060606060606060606066A
:1031900006060606060606030603C6017F000000B3
:1031A0000000000000000000000000000000FF031D
:1031B000060206040600060086008600FE00860061
:1031C000860006000600060406040602FF0300004F
:1031D0000000000000000000000000000000FF03ED
:1031E000060306040604060086008600FE0086002C
:1031F0008600060006000600060006000F0000001C
:103200000000000000000000000000000000F002CC
:1032100018030C020C02040006000600060006005B
:10322000C60F060306030C030C031803F00000008E
:1032300000000000000000000000000000000F0F70
:10324000060606060606060606060606FE07060625
:103250000606060606060606060606060F0F000008
:103260000000000000000000000000000000FC035F
:10327000600060006000600060006000600060004E
:10328000600060006000600060006000FC030000FF
:103290000000000000000000000000000000F00F2F
:1032A0008001800180018001800180018001800116
:1032B0008001800180018001800180018001860100
:1032C000C6007C0000000000000000000000CF07E6
:1032D0000601860046004600260036003E006E00CD
:1032E000E600C600C6018601060306078F0F000030
:1032F00000000000000000000000000000000F00BF
:10330000060006000600060006000600060006008D
:10331000060006000600060406040602FF0300007D
:1033200000000000000000000000000000000F0F7F
:103330000E070E070E079A069A069A069A065A066E
:10334000720672067206720622062206270F000017
:103350000000000000000000000000000000070E58
:103360000E040E041A041A04320462046204C20435
:10337000C2048205020702070206020607040000D3
:103380000000000000000000000000000000F0004D
:1033900098010C030C02060606060606060606063B
:1033A0000606060606060C020C039801F000000053
:1033B0000000000000000000000000000000FF010D
:1033C0000603060606060606060606060603FE01B0
:1033D0000600060006000600060006000F000000BA
:1033E0000000000000000000000000000000F000ED
:1033F00098010C030C0206060606060606060606DB
:103400000606060676064C028C038801F00180074A
:103410000003000000000000000000000000FF01A9
:10342000060306060606060606060603FE006600F6
:10343000C600C60086018601060306030F0E0000C3
:103440000000000000000000000000000000F80480
:103450000C070604060406000E003C00F000C00342
:10346000000300060206020606060E03F201000033
:103470000000000000000000000000000000FE0747
:103480006204610861086000600060006000600024
:10349000600060006000600060006000F0000000FC
:1034A00000000000000000000000000000000F0EFF
:1034B00006040604060406040604060406040604BC
:1034C000060406040604060406040C02F8010000C3
:1034D00000000000000000000000000000001F0FBE
:1034E0000E060C020C020C020C0118011801180146
:1034F0001801B000B000B000F000600060000000F3
:103500000000000000000000000000000000EF0EBE
:103510006604660466026602E602EC02EC02DC0166
:10352000DC01DC01DC019C018800880088000000CF
:1035300000000000000000000000000000009E07E6
:103540000C03180118019800B000700060006000C2
:10355000E000D000D001980188010C039E07000014
:1035600000000000000000000000000000001F0F2D
:103570000E060C020C0118011801B000B00070001A
:10358000600060006000600060006000F801000002
:103590000000000000000000000000000000FC0728
:1035A000040382038001C001C000C000600060000D
:1035B00030003000180018041C040C02FE03000048
:1035C0000000000000000000E007200020002000B4
:1035D00020002000200020002000200020002000EB
:1035E00020002000200020002000200020002000DB
:1035F000E0070000000000000000000004000800D8
:1036000008000800100010002000200020004000EA
:1036100040008000800080000001000100020002E4
:103620000002000400000000FC0080008000800018
:10363000800080008000800080008000800080008A
:10364000800080008000800080008000800080007A
:10365000FC00000000000000E000B00108020000D3
:10366000000000000000000000000000000000005A
:10367000000000000000000000000000000000004A
:10368000000000000000000000000000000000003A
:10369000000000000000000000000000000000002A
:1036A000000000000000000000000000000000001A
:1036B0000000FF0F00000000180060000000000084
:1036C00000000000000000000000000000000000FA
:1036D00000000000000000000000000000000000EA
:1036E00000000000000000000000000000000000DA
:1036F0000000000000000000F0010C030C03E003D8
:1037000038030C030603060306038E0B7C0F000030
:1037100000000000000000000000000008000E0093
:103720000C000C000C000C00CC013C031C060C0629
:103730000C060C060C060C060C021C03F40100001F
:103740000000000000000000000000000000000079
:103750000000000000000000F0008C018C018601D8
:1037600006000600060006020C020C01F000000034
:1037700000000000000000000000000000028003C4
:10378000000300030003000378038C030C0306030B
:10379000060306030603060304038C0778010000F2
:1037A0000000000000000000000000000000000019
:1037B0000000000000000000E001180308060C06ED
:1037C000FC070C000C000C0018043802E00100009B
:1037D0000000000000000000000000000000C00326
:1037E0006006300630003000FE033000300030004C
:1037F000300030003000300030003000FC010000AC
:1038000000000000000000000000000000000000B8
:103810000000000000000000F00E98090C030C03EB
:103820000C039801F8000C007C00F803060606065D
:103830000E07F801000000000000000008000E0064
:103840000C000C000C000C00EC011C030C030C031E
:103850000C030C030C030C030C030C039E07000069
:1038600000000000000000000000000000006000F8
:1038700060000000000000007C006000600060004C
:10388000600060006000600060006000FC030000F9
:1038900000000000000000000000000000008001A7
:1038A0008001000000000000F00180018001800123
:1038B0008001800180018001800180018001800100
:1038C000CC007C00000000000000000008000E009A
:1038D0000C000C000C000C00CC038C00CC004C0045
:1038E0006C007C00DC00CC008C018C019E07000089
:1038F00000000000000000000000000040007C000C
:1039000060006000600060006000600060006000B7
:10391000600060006000600060006000FC03000068
:103920000000000000000000000000000000000097
:1039300000000000000000007707EE06660666063D
:10394000660666066606660666066606EF0E0000F2
:103950000000000000000000000000000000000067
:103960000000000000000000CE013C030C030C032B
:103970000C030C030C030C030C030C039E07000048
:103980000000000000000000000000000000000037
:103990000000000000000000F00098010C03060683
:1039A00006060606060606060C030C03F0000000D9
:1039B0000000000000000000000000000000000007
:1039C0000000000000000000EE011C030C060C06C5
:1039D0000C060C060C060C060C031C03EC010C0078
:1039E0000C003E000000000000000000000000008D
:1039F000000000000000000078028C030C030603A6
:103A0000060306030603060304038C03780300037E
:103A10000003C007000000000000000000000000DC
:103A200000000000000000009F0758063800180042
:103A3000180018001800180018001800FF000000F7
:103A40000000000000000000000000000000000076
:103A50000000000000000000F00718060C040C0035
:103A60003800F0018003040604060C03FC0100008A
:103A70000000000000000000000000000000000046
:103A80002000200030003000FE0130003000300007
:103A9000300030003000300030023002E001000021
:103AA0000000000000000000000000000000000016
:103AB00000000000000008028E030C030C030C033E
:103AC0000C030C030C030C030C039C07780100008F
:103AD00000000000000000000000000000000000E6
:103AE00000000000000000003E0F1C061802180233
:103AF000300130013001E000E000E0004000000053
:103B000000000000000000000000000000000000B5
:103B10000000000000000000EF0DC604C604E6042B
:103B2000EC04AC039C039C039C0308010801000007
:103B30000000000000000000000000000000000085
:103B40000000000000000000BE0718019801B0004E
:103B500070006000E000D00098018803DE070000DC
:103B60000000000000000000000000000000000055
:103B70000000000000000000BE071C011801180131
:103B8000B000B000B00060006000400020002000E5
:103B900014001C00000000000000000000000000F5
:103BA0000000000000000000FC038401C401C0000C
:103BB000E00060007000300438041806FC030000C8
:103BC0000000000000000000000380018000800071
:103BD00080008000800080008000C0002000C000C5
:103BE00080008000800080008000800080008001D4
:103BF0000003000040004000400040004000400042
:103C000040004000400040004000400040004000B4
:103C100040004000400040004000400040004000A4
:103C200040004000000000000C00180010001000D0
:103C30001000100010001000100030004000300094
:103C400010001000100010001000100010001800EC
:103C50000C00000000001C00240042088204000741
:103C60000000000000000000000000000000000054
:103C70000000000000000000000000000000000044
:103C80000000000000000000000000000000000034
:103C90000000000000000000000000000000000024
:103CA0000000000000000000000000000000000014
:103CB0000000000000000000000000000000000004
:103CC0000000000000000000000000000000C00133
:103CD000C001C001C001C001C001C001800080005E
:103CE0008000800080008000800000000000000054
:103CF00000008001C003C00380010000000000003C
:103D000000000000000000000000E01CE01CF01EAD
:103D1000700E38071803080184000000000000003E
:103D20000000000000000000000000000000000093
:103D30000000000000000000000000000000000083
:103D40000000000000000000000000000000000073
:103D500020102010201020102010FE7FFE7F100861
:103D6000100810081008100810081008FE7FFE7FC9
:103D70000804080408040804080400000000000007
:103D80000000000000000000000000000001000131
:103D9000C00760191031183118391839380170010D
:103DA000E001C0038007000F001D003900311C3105
:103DB0001C310C310C11180DE0070001000100014D
:103DC00000000000000000000000000000000000F3
:103DD0001C1036186308630C6304630463026302F7
:103DE0006301361D9C3780228063406340632063FB
:103DF0002063306310221836081C00000000000009
:103E000000000000000000000000000000000000B2
:103E1000F00098018C018C018C018C018C00CC008D
:103E20007800183E1C083608320863046304C30493
:103E3000C303834306438E26781C00000000000065
:103E4000000000000000000000001C003C003C00DE
:103E50003000300010000C000600000000000000E0
:103E60000000000000000000000000000000000052
:103E70000000000000000000000000000000000042
:103E800000000000000000000000004000200010C2
:103E90000008000C0004000600030003000380017A
:103EA0008001800180018001800180018001000388
:103EB0000003000300060006000C000800100020AC
:103EC00000400000000000000000020004000800A4
:103ED0001000300020006000C000C000C000800161
:103EE0008001800180018001800180018001C0008B
:103EF000C000C00060006000300010000800040036
:103F000002000000000000000000000000000000AF
:103F10000000000000018003800300011C713C7957
:103F2000783DC0070001C007783D3C791C71000155
:103F300080038003800100000000000000000000FA
:103F40000000000000000000000000000000000071
:103F5000000000000000000100010001000100015C
:103F600000010001FC7F00010001000100010001CF
:103F7000000100010000000000000000000000003F
:103F80000000000000000000000000000000000031
:103F90000000000000000000000000000000000021
:103FA0000000000000000000000000000000000011
:103FB000000000001C003C003C00300030001000FD
:103FC0000C000600000000000000000000000000DF
:103FD00000000000000000000000000000000000E1
:103FE00000000000FE7F0000000000000000000054
:103FF00000000000000000000000000000000000C1
:1040000000000000000000000000000000000000B0
:1040100000000000000000000000000000000000A0
:104020000000000000000000000000000000000090
:10403000000018003C003C001800000000000000D8
:1040400000000000000000000000004000600020B0
:104050000030001000180008000C000400060002E8
:104060000003000180018000C000400060002000CB
:1040700030001000180008000C00040006000200C8
:104080000000000000000000000000000000000030
:10409000C007600C30181830183018200C600C6005
:1040A0000C600C600C600C600C600C600C601820E4
:1040B000183018303018600CC007000000000000F5
:1040C00000000000000000000000000000000000F0
:1040D00000018001F80180018001800180018001E0
:1040E00080018001800180018001800180018001C8
:1040F000800180018001C003F81F00000000000063
:1041000000000000000000000000000000000000AF
:10411000E007101C0818043004300C300C3000305C
:104120000018000800040002000180004000202068
:10413000102008200430FC1FFC1F000000000000BD
:10414000000000000000000000000000000000006F
:10415000E003180E0C0C0C180C180C180018000CAE
:104160000006C003000E00180010003000300C30B4
:104170000C300C100C18180CE003000000000000BC
:10418000000000000000000000000000000000002F
:10419000000C000E000E000F800E800E400E600E10
:1041A000200E100E100E080E040E040EFE7F000EE0
:1041B000000E000E000E000E000EC07F000000007A
:1041C00000000000000000000000000000000000EF
:1041D000F03FF03F10001000100008000800C80772
:1041E000280C1818081000300030003000300C3057
:1041F0000C3004180418080CF00300000000000044
:1042000000000000000000000000000000000000AE
:10421000800FC010203010301800180008000C006B
:104220008C0F6C183C301C600C600C600C600C60D7
:104230001860182030306018C0070000000000002F
:10424000000000000000000000000000000000006E
:10425000F83FF83F1C100C08040804040004000296
:104260000002000100010001800080008000C00009
:10427000C000C000C000C000C0000000000000007E
:10428000000000000000000000000000000000002E
:10429000E007300C18180C300C300C301C3038187B
:1042A0007008E007B007180E0C1C06380630063000
:1042B000063006300C18180CE00300000000000067
:1042C00000000000000000000000000000000000EE
:1042D000E00318040C080C180610063006300630EF
:1042E000063006380C3C1836F03100300018001843
:1042F00000180C0C0C060C03F0010000000000007C
:1043000000000000000000000000000000000000AD
:10431000000000000000000000000000000080011C
:10432000C003C00380010000000000000000000086
:1043300000008001C003C0038001000000000000F5
:10434000000000000000000000000000000000006D
:104350000000000000000000000000000000C0009D
:10436000C00000000000000000000000000000008D
:10437000000000000000C000C0008000800040007D
:1043800040000000000000000000000000000020CD
:10439000001000080004000600038001C000600057
:1043A000300018000C00180030006000C0008001D0
:1043B00000030006000400080010002000000000B8
:1043C00000000000000000000000000000000000ED
:1043D0000000000000000000000000000000FE7F60
:1043E00000000000000000000000FE7F0000000050
:1043F00000000000000000000000000000000000BD
:1044000000000000000000000000000000000400A8
:104410000800100020006000C000800100030006BA
:10442000000C001800300018000C0006000380018A
:10443000C000600020001000080004000000000020
:104440000000000000000000000000000000C007A5
:104450003018083008600C601C601C601C60003064
:10446000001C000600018000800080008000000029
:1044700000008001C003C0038001000000000000B4
:10448000000000000000000000000000000000002C
:10449000C0076018103018200C2F8C4D864CC64C6D
:1044A000C64C664C66446644662666266615CC1C79
:1044B0000C40082018303018C00700000000000031
:1044C00000000000000000000000000000000001EB
:1044D000C001C001C001400160032003200320038C
:1044E0003006100610061006F80F080C080C080C11
:1044F0000C0C0418041806181F7C000000000000B3
:1045000000000000000000000000000000000000AB
:10451000FE07181C183818301830183018301818C2
:10452000180CF80718181830182018601860186050
:104530001860186018301818FE0F00000000000006
:10454000000000000000000000000000000000006B
:10455000C0276038103018200C400C4004000600C2
:1045600006000600060006000600060006000C40D5
:104570000C400C2018303018C0070000000000006C
:10458000000000000000000000000000000000002B
:10459000FE03180E181818301830183018601860FC
:1045A000186018601860186018601860186018307B
:1045B000183018101818180EFE0300000000000034
:1045C00000000000000000000000000000000000EB
:1045D000FE3F1830182018601840180018081808F6
:1045E000180CF80F180C18081808180018001800F4
:1045F0001840184018201830FE3F0000000000004E
:1046000000000000000000000000000000000000AA
:10461000FE7F1870184018C0188018001810181065
:104620001818F81F1818181018101800180018007B
:1046300018001800180018007E000000000000009C
:10464000000000000000000000000000000000006A
:10465000C013701C101018100C200C200400060051
:10466000060006000600060006FC063006300C3088
:104670000C30183018303008C0070000000000006F
:10468000000000000000000000000000000000002A
:104690003F7E0C180C180C180C180C180C180C1861
:1046A0000C180C18FC1F0C180C180C180C180C18F3
:1046B0000C180C180C180C183F7E000000000000AD
:1046C00000000000000000000000000000000000EA
:1046D000F81F80018001800180018001800180013C
:1046E00080018001800180018001800180018001C2
:1046F0008001800180018001F81F0000000000009F
:1047000000000000000000000000000000000000A9
:10471000E07F000600060006000600060006000610
:104720000006000600060006000600060006000659
:104730000006000600060006000600060E060E0330
:104740008E01FC00000000000000000000000000DE
:104750007E7C181818081804180618021801980109
:104760009801D801B803380318071806180E180C5A
:10477000181C1818183018307EFC000000000000CB
:104780000000000000000000000000000000000029
:104790007E001800180018001800180018001800F3
:1047A0001800180018001800180018001800180049
:1047B0001840184018201830FE3F0000000000008C
:1047C00000000000000000000000000000000000E9
:1047D0001FF81C381C381C381C3C34343434343436
:1047E000343674326432643264326431C431C43178
:1047F000C431C430C43084309FFC0000000000008D
:1048000000000000000000000000000000000000A8
:104810001F7C1C103C103410341074106410E41011
:10482000C410C41184118413041304170416041E45
:10483000041C041C041C04181F18000000000000C5
:104840000000000000000000000000000000000068
:10485000C003300C181808100C300C3006600660CD
:1048600006600660066006600660066006600C2052
:104870000C3008101818300CC003000000000000B5
:104880000000000000000000000000000000000028
:10489000FE0F18181830186018601860186018603B
:1048A00018301818F80F1800180018001800180011
:1048B00018001800180018007E000000000000001A
:1048C00000000000000000000000000000000000E8
:1048D000C003300C18180C100C300C200660066059
:1048E0000660066006600660066006600660E461B9
:1048F0002C331C321816300EC007004C007C0038D8
:1049000000000000000000000000000000000000A7
:10491000FE07181C183818301830183018301818BE
:10492000180CF80798031803180718061806180E2D
:10493000180C180C181C18187E78000000000000D5
:104940000000000000000000000000000000000067
:10495000E027303818300C200C200C000C00180018
:104960007800E003800F001E0038007000600460D3
:104970000460086018303818C80F000000000000FC
:104980000000000000000000000000000000000027
:10499000FC3F8C2184618241824180018001800141
:1049A00080018001800180018001800180018001FF
:1049B0008001800180018001E0070000000000000C
:1049C00000000000000000000000000000000000E7
:1049D0003F7C0C100C100C100C100C100C100C1058
:1049E0000C100C100C100C100C100C100C100C10E7
:1049F0000C100C1008083804E00300000000000050
:104A000000000000000000000000000000000000A6
:104A10003EF81820182018203010301030103010B8
:104A2000600860086008E00CC004C004C004800393
:104A300080038003800300010001000000000000EB
:104A40000000000000000000000000000000000066
:104A5000DFF38661862186218C210C218C238C1327
:104A60008C138C134C1358125816580E380E380EDF
:104A7000380E300C10041004100400000000000078
:104A80000000000000000000000000000000000026
:104A90007E3E180838083004300470026002E001DD
:104AA000C001C001800180034003400720062006AA
:104AB000100C100C081808183E7C000000000000C4
:104AC00000000000000000000000000000000000E6
:104AD0007E7C1C10181018083008300C700460041C
:104AE0006002C002C002C00180018001800180011B
:104AF0008001800180018001E007000000000000CB
:104B000000000000000000000000000000000000A5
:104B1000F83F18180818040C040E000600070003DC
:104B200080038001C001C000E00060007000300020
:104B3000382018201C100C18FE1F00000000000078
:104B400000000000000000000000C03F40004000E6
:104B50004000400040004000400040004000400055
:104B60004000400040004000400040004000400045
:104B70004000400040004000400040004000C03F76
:104B8000000000000000000000000000000008001D
:104B90001800180010003000200060006000400085
:104BA000C0008000800180010001000300020006B7
:104BB00000060004000C0008001800180010003067
:104BC00000200000000000000000FC0300020002C2
:104BD00000020002000200020002000200020002C5
:104BE00000020002000200020002000200020002B5
:104BF0000002000200020002000200020002FC03A8
:104C0000000000000000000000008007C00620082F
:104C10001010000000000000000000000000000074
:104C20000000000000000000000000000000000084
:104C30000000000000000000000000000000000074
:104C40000000000000000000000000000000000064
:104C50000000000000000000000000000000000054
:104C60000000000000000000000000000000000044
:104C70000000000000000000000000000000000034
:104C80000000FFFF0000000000007800C0000001ED
:104C90000000000000000000000000000000000014
:104CA0000000000000000000000000000000000004
:104CB00000000000000000000000000000000000F4
:104CC00000000000000000000000000000000000E4
:104CD0000000000000000000000000000000F003E1
:104CE00018060C0C0C0C000C800F700C1C0C0C0C1F
:104CF000060C060C064C0C4FF838000000000000B3
:104D00000000000000000000000000000000100093
:104D10001E00180018001800180018001800180FBE
:104D2000D81838303860186018601860186018603B
:104D30001860182038307818C807000000000000FC
:104D40000000000000000000000000000000000063
:104D50000000000000000000000000000000C0078C
:104D6000700C181818180C180C000C000C000C0013
:104D70000C20182018103008C007000000000000A8
:104D80000000000000000000000000000000001013
:104D9000001E001800180018001800180018E01B6A
:104DA000301C181818180C180C180C180C180C18A3
:104DB0000C180818181C307AE009000000000000E8
:104DC00000000000000000000000000000000000E3
:104DD0000000000000000000000000000000C0070C
:104DE000300C181808100C300C30FC3F0C000C0074
:104DF0000C00182018107018C007000000000000F8
:104E000000000000000000000000000000000000A2
:104E1000003E80C380C0C0C0C000C000C000FC1FF6
:104E2000C000C000C000C000C000C000C000C00082
:104E3000C000C000C000C000F80F0000000000006B
:104E40000000000000000000000000000000000062
:104E50000000000000000000000000000000C0771B
:104E6000306C10181818181818181018300CF00793
:104E700018001800F00FF03F08700C600C600C6018
:104E80003838E00F000000000000000000001000B3
:104E90001E00180018001800180018001800980FBD
:104EA000D8183830183018301830183018301830FA
:104EB00018301830183018307EFC00000000000058
:104EC00000000000000000000000000000000000E2
:104ED0008003800380030000000000000001F8014F
:104EE00080018001800180018001800180018001BA
:104EF0008001800180018001F81F00000000000097
:104F000000000000000000000000000000000000A1
:104F10000038003800380000000000000010801F3A
:104F200000180018001800180018001800180018C1
:104F30000018001800180018001800180018180CA5
:104F40001806F00300000000000000000000100040
:104F50001E00180018001800180018001800183E4D
:104F6000180C1806180318019801D80138031807FF
:104F70001806180C181C18187E7C00000000000091
:104F80000000000000000000000000000000000120
:104F9000F801800180018001800180018001800191
:104FA00080018001800180018001800180018001F9
:104FB0008001800180018001F81F000000000000D6
:104FC00000000000000000000000000000000000E1
:104FD0000000000000000000000000000800EE1CBF
:104FE0009C338C318C318C318C318C318C318C31C7
:104FF0008C318C318C318C31DE7B00000000000064
:1050000000000000000000000000000000000000A0
:1050100000000000000000000000000010001E0F53
:10502000D818383018301830183018301830183078
:1050300018301830183018307EFC000000000000D6
:105040000000000000000000000000000000000060
:105050000000000000000000000000000000C00789
:10506000701C103018300C600C600C600C600C6010
:105070000C60183018303018C00700000000000025
:105080000000000000000000000000000000000020
:1050900000000000000000000000000010009E0F53
:1050A0005818383018201860186018601860186098
:1050B0001860183038307818980718001800180051
:1050C00018007E000000000000000000000000004A
:1050D0000000000000000000000000000000C023ED
:1050E000303C183818300C300C300C300C300C3090
:1050F0000C3008301838303CE033003000300030DD
:10510000003000FC00000000000000000000000073
:1051100000000000000000000000000060007E3C75
:1051200060666061E000E0006000600060006000B8
:105130006000600060006000FE07000000000000EA
:10514000000000000000000000000000000000005F
:105150000000000000000000000000000000E02748
:1051600030381830182018007000E003800F001C41
:10517000043004300C301C18EC0F0000000000005C
:10518000000000000000000000000000000000001F
:1051900000000000800080008000C000E000FC1FD4
:1051A000C000C000C000C000C000C000C000C000FF
:1051B000C000C020C0208011000F000000000000CF
:1051C00000000000000000000000000000000000DF
:1051D00000000000000000000000000010201E3C45
:1051E000183018301830183018301830183018307F
:1051F00018301830183830F4E013000000000000B8
:10520000000000000000000000000000000000009E
:1052100000000000000000000000000000007E3CD4
:105220001818180838083004300470026002600250
:10523000E001C001C001C0008000000000000000CB
:10524000000000000000000000000000000000005E
:105250000000000000000000000000000000DFF778
:105260008E630C238C238C2398139813581658168E
:10527000700E700E700E200420040000000000006C
:10528000000000000000000000000000000000001E
:105290000000000000000000000000000000FC3ED4
:1052A00070087004E004C002C0018003800340075E
:1052B0006006200C100C18183E7E00000000000054
:1052C00000000000000000000000000000000000DE
:1052D00000000000000000000000000000007E7CD4
:1052E0001818180830083008300460046004C00240
:1052F000C002C00280018001800180008000800027
:105300004C003C0000000000000000000000000015
:105310000000000000000000000000000000FC1F72
:105320000C0C040E0406000380038001C000E000A2
:105330007020302038301C18FC1F000000000000D6
:105340000000000000000000000000300008000421
:10535000000400040004000400040004000400042D
:1053600000040002800100020004000400040004A4
:105370000004000400040004000400040004000809
:1053800000300000000100010001000100010001E7
:105390000001000100010001000100010001000105
:1053A00000010001000100010001000100010001F5
:1053B00000010001000100010001000100010001E5
:1053C000000100010000000000000C00100020009F
:1053D00020002000200020002000200020002000CD
:1053E000200040008001400020002000200020001C
:1053F00020002000200020002000200020001000BD
:105400000C00000000003800C40086400261002249
:10541000001C000000000000000000000000000070
:10542000000000000000000000000000000000007C
:10543000000000000000000000000000000000006C
:1054400000000000D6D0200020002000FE03220231
:1054500022022202FE032202200020002000BEB011
:10546000FC010401FC010401FC012000FF07040110
:10547000FC01200024013202D4B0FE070204FA0429
:1054800002040204FE05520452044A058605020481
:10549000FE07B5E710001000FF0111011101FF0127
:1054A00011011101FF0111041004E007D7D300001E
:1054B000FC018000400020002000FF0720002000A9
:1054C000200020003800D6D08000800080008000BE
:1054D000FC1F84108410841084108410FC1F84101E
:1054E0008000800080008000BEB0F80F0808F80F30
:1054F0000808F80F8000FF7F0000F80F0808080870
:10550000F80F80008410A2204000D4B00000FE3FBD
:105510000220F22702200220FA2F2221222122211A
:10552000122912290A2E0220FE3F0220B5E7800030
:1055300080008000FC1F841084108410FC1F8410E5
:1055400084108410FC1F845080408040007FD7D39B
:105550000000FE1F00080004000280018000FF7FA1
:10556000800080008000800080008000A00040005B
:10557000BCBC080408040804C87F3F0408040804ED
:10558000A83F18210C110B12080A0804080A8A11F6
:105590006460CAF58000800480088008FE3FC00176
:1055A000A002A0029004880884108220814080001C
:1055B00080008000D3D040004000FF7F200020000A
:1055C000F00F10081808F40F12081108F00F100857
:1055D0001008100A1004CFDE0000DE1F52104A101F
:1055E000CA1F46104A10D21F52225212560C4A04A9
:1055F00042084211C2604200B9AB00012001200103
:105600001002100208040408421041602000200229
:1056100010040804FC0F08080000CBBE0000FC1FAB
:1056200000100010FE1700100010F81108110811EA
:1056300008110811F811081100140008BBB6000188
:1056400000013F01203FA0209210540228020802CE
:1056500014052405A2088108401020201040D3AD75
:1056600000000401C83C4824402440244F2448241E
:105670004824482DC814480408041404E27F00009C
:10568000C4FA90009000883F4C202A12990A881290
:10569000482228228802080140008A208A480948B6
:1056A000F00FB4BF080208020402C43F12025F12E6
:1056B000481244124212DF1F02120002184207422F
:1056C000027C0000C9AB10001000F80704040202BD
:1056D000FD1F841084108410FC1F0400044004404B
:1056E0000440F87F0000CCEE04020402E43F040210
:1056F000C41F5F10C41F4410C41F4410C41F5C109B
:10570000F77F820840102020B3E440008000FF7F34
:105710002000200010040808FC1F20122002200294
:105720002002102210220822063CBED80400847FEA
:10573000BC008A008900883F8820FF2088208820BC
:10574000883F9400A400A200827F0100D0CE000018
:10575000FE2148204810480848444840FF2348108C
:105760004808484448404420441042084106BBAD24
:105770000000FF7F00000000F22792249224F2270D
:10578000922492249224F22702200220FE3F00203D
:10579000D4B20000FE3F0220F2271224F22702209A
:1057A000FA2F0A288A288A284A2922221224FE3F10
:1057B0000220CDBC0000FE3F42204220E2273222E0
:1057C0004A21822062231E3CC220022162208221C3
:1057D000FE3F0220C6AC00020802080208020802CE
:1057E000F83F080008000800F80708040804080447
:1057F000040404040204CFD40000F80F08080808C9
:10580000F80F08080808F80F200222222422281284
:10581000280A2002FF7F0000CABE0000FC1F000013
:10582000000000000000FF7F8000800088088810D2
:10583000842082408140A0004000B2CB10041004BC
:10584000FF7F10040008001FFC008808100480007F
:10585000FE3FA00290048C1883608000B5A5080864
:1058600010042002FC1F84108410FC1F841084107C
:10587000FC1F80008000FF7F800080008000D3A29A
:1058800010041004FF7F100480008000F80F8808C7
:1058900088088808FF7F4001200210040C1803606C
:1058A000CEC4400080008000FF7F08080808100474
:1058B00010042002400180004001200210040C1856
:1058C0000360D7DB08020804C47F444012009F3FF6
:1058D00008000400C27F1F04821480245844274417
:1058E00002050002BACF80008000400120021004AF
:1058F0000C18F36700000000F80F080808080808F3
:105900000808F80F0808C1C140008000FE3F0000F1
:10591000F80F0808F80F0000FE7F0240F12710047E
:105920001004084404440378B6C880000001FC7FDA
:1059300044044404FC3F44044404C4070400F40F3A
:10594000240842048203610C1C70B2E20020E423AC
:105950002822282AA12AA22AA22AA82AA82AA42AD6
:10596000A72A84204421442224281010CAD40014D9
:10597000042408240804E07F00040F04E8078804D6
:1059800088088808A8089853E85040600040B3CCC5
:105990001000B83F8F2088208820BF3F08000C00EF
:1059A0009C7F2A042A04893F08040804C87F080051
:1059B000D0F280000001FC7F0400C41F040804052D
:1059C0000402F47F04420422040202020202810261
:1059D0000001B5F70000E23F24222422A02F20225C
:1059E0002722E43F2420A42FA428B428AC2F24206D
:1059F00020281010B9E280008410881090089004CC
:105A00008000FF7F2002200220022002104210426C
:105A10000842047C0300B0E610101238920792008E
:105A20009200BE3F822282229E22921492149208F9
:105A30009208521452223141C8A80800C83F882059
:105A40008820BF2008110C111C112A0A2A0A0904F7
:105A50000804080A081188206840CBF94010E03893
:105A60001C07040104017C01447F441144117C1192
:105A7000041104118210821041102010D6D00000B1
:105A800000000000001800000800000800000800E6
:105A9000080818F8FF1F1808181808181808181808
:105AA0000818180818180818F8FF1F080808000830
:105AB000000008000008000008000018000018009E
:105AC000001800000000BEB0000000000000400010
:105AD00006C0FF07400006C0FF07400006C0FF07E2
